{
  "_format": "hh-sol-artifact-1",
  "contractName": "TicketNFT",
  "sourceName": "contracts/TicketNFT.sol",
  "abi": [
    {
      "inputs": [
        {
          "internalType": "string",
          "name": "name",
          "type": "string"
        },
        {
          "internalType": "string",
          "name": "symbol",
          "type": "string"
        },
        {
          "internalType": "address",
          "name": "initialOwner",
          "type": "address"
        }
      ],
      "stateMutability": "nonpayable",
      "type": "constructor"
    },
    {
      "inputs": [
        {
          "internalType": "address",
          "name": "sender",
          "type": "address"
        },
        {
          "internalType": "uint256",
          "name": "tokenId",
          "type": "uint256"
        },
        {
          "internalType": "address",
          "name": "owner",
          "type": "address"
        }
      ],
      "name": "ERC721IncorrectOwner",
      "type": "error"
    },
    {
      "inputs": [
        {
          "internalType": "address",
          "name": "operator",
          "type": "address"
        },
        {
          "internalType": "uint256",
          "name": "tokenId",
          "type": "uint256"
        }
      ],
      "name": "ERC721InsufficientApproval",
      "type": "error"
    },
    {
      "inputs": [
        {
          "internalType": "address",
          "name": "approver",
          "type": "address"
        }
      ],
      "name": "ERC721InvalidApprover",
      "type": "error"
    },
    {
      "inputs": [
        {
          "internalType": "address",
          "name": "operator",
          "type": "address"
        }
      ],
      "name": "ERC721InvalidOperator",
      "type": "error"
    },
    {
      "inputs": [
        {
          "internalType": "address",
          "name": "owner",
          "type": "address"
        }
      ],
      "name": "ERC721InvalidOwner",
      "type": "error"
    },
    {
      "inputs": [
        {
          "internalType": "address",
          "name": "receiver",
          "type": "address"
        }
      ],
      "name": "ERC721InvalidReceiver",
      "type": "error"
    },
    {
      "inputs": [
        {
          "internalType": "address",
          "name": "sender",
          "type": "address"
        }
      ],
      "name": "ERC721InvalidSender",
      "type": "error"
    },
    {
      "inputs": [
        {
          "internalType": "uint256",
          "name": "tokenId",
          "type": "uint256"
        }
      ],
      "name": "ERC721NonexistentToken",
      "type": "error"
    },
    {
      "inputs": [
        {
          "internalType": "address",
          "name": "owner",
          "type": "address"
        }
      ],
      "name": "OwnableInvalidOwner",
      "type": "error"
    },
    {
      "inputs": [
        {
          "internalType": "address",
          "name": "account",
          "type": "address"
        }
      ],
      "name": "OwnableUnauthorizedAccount",
      "type": "error"
    },
    {
      "anonymous": false,
      "inputs": [
        {
          "indexed": true,
          "internalType": "address",
          "name": "owner",
          "type": "address"
        },
        {
          "indexed": true,
          "internalType": "address",
          "name": "approved",
          "type": "address"
        },
        {
          "indexed": true,
          "internalType": "uint256",
          "name": "tokenId",
          "type": "uint256"
        }
      ],
      "name": "Approval",
      "type": "event"
    },
    {
      "anonymous": false,
      "inputs": [
        {
          "indexed": true,
          "internalType": "address",
          "name": "owner",
          "type": "address"
        },
        {
          "indexed": true,
          "internalType": "address",
          "name": "operator",
          "type": "address"
        },
        {
          "indexed": false,
          "internalType": "bool",
          "name": "approved",
          "type": "bool"
        }
      ],
      "name": "ApprovalForAll",
      "type": "event"
    },
    {
      "anonymous": false,
      "inputs": [
        {
          "indexed": false,
          "internalType": "uint256",
          "name": "_fromTokenId",
          "type": "uint256"
        },
        {
          "indexed": false,
          "internalType": "uint256",
          "name": "_toTokenId",
          "type": "uint256"
        }
      ],
      "name": "BatchMetadataUpdate",
      "type": "event"
    },
    {
      "anonymous": false,
      "inputs": [
        {
          "indexed": false,
          "internalType": "uint256",
          "name": "_tokenId",
          "type": "uint256"
        }
      ],
      "name": "MetadataUpdate",
      "type": "event"
    },
    {
      "anonymous": false,
      "inputs": [
        {
          "indexed": true,
          "internalType": "address",
          "name": "previousOwner",
          "type": "address"
        },
        {
          "indexed": true,
          "internalType": "address",
          "name": "newOwner",
          "type": "address"
        }
      ],
      "name": "OwnershipTransferred",
      "type": "event"
    },
    {
      "anonymous": false,
      "inputs": [
        {
          "indexed": true,
          "internalType": "address",
          "name": "owner",
          "type": "address"
        },
        {
          "indexed": false,
          "internalType": "uint256",
          "name": "tokenId",
          "type": "uint256"
        },
        {
          "indexed": false,
          "internalType": "string",
          "name": "tokenURI",
          "type": "string"
        }
      ],
      "name": "TicketMinted",
      "type": "event"
    },
    {
      "anonymous": false,
      "inputs": [
        {
          "indexed": false,
          "internalType": "uint256",
          "name": "tokenId",
          "type": "uint256"
        },
        {
          "indexed": true,
          "internalType": "address",
          "name": "newOwner",
          "type": "address"
        },
        {
          "indexed": false,
          "internalType": "uint256",
          "name": "price",
          "type": "uint256"
        }
      ],
      "name": "TicketResold",
      "type": "event"
    },
    {
      "anonymous": false,
      "inputs": [
        {
          "indexed": false,
          "internalType": "uint256",
          "name": "tokenId",
          "type": "uint256"
        }
      ],
      "name": "TicketValidated",
      "type": "event"
    },
    {
      "anonymous": false,
      "inputs": [
        {
          "indexed": true,
          "internalType": "address",
          "name": "from",
          "type": "address"
        },
        {
          "indexed": true,
          "internalType": "address",
          "name": "to",
          "type": "address"
        },
        {
          "indexed": true,
          "internalType": "uint256",
          "name": "tokenId",
          "type": "uint256"
        }
      ],
      "name": "Transfer",
      "type": "event"
    },
    {
      "inputs": [
        {
          "internalType": "address",
          "name": "to",
          "type": "address"
        },
        {
          "internalType": "uint256",
          "name": "tokenId",
          "type": "uint256"
        }
      ],
      "name": "approve",
      "outputs": [],
      "stateMutability": "nonpayable",
      "type": "function"
    },
    {
      "inputs": [
        {
          "internalType": "address",
          "name": "owner",
          "type": "address"
        }
      ],
      "name": "balanceOf",
      "outputs": [
        {
          "internalType": "uint256",
          "name": "",
          "type": "uint256"
        }
      ],
      "stateMutability": "view",
      "type": "function"
    },
    {
      "inputs": [
        {
          "internalType": "uint256",
          "name": "tokenId",
          "type": "uint256"
        }
      ],
      "name": "getApproved",
      "outputs": [
        {
          "internalType": "address",
          "name": "",
          "type": "address"
        }
      ],
      "stateMutability": "view",
      "type": "function"
    },
    {
      "inputs": [
        {
          "internalType": "address",
          "name": "owner",
          "type": "address"
        },
        {
          "internalType": "address",
          "name": "operator",
          "type": "address"
        }
      ],
      "name": "isApprovedForAll",
      "outputs": [
        {
          "internalType": "bool",
          "name": "",
          "type": "bool"
        }
      ],
      "stateMutability": "view",
      "type": "function"
    },
    {
      "inputs": [
        {
          "internalType": "address",
          "name": "to",
          "type": "address"
        },
        {
          "internalType": "string",
          "name": "tokenURI",
          "type": "string"
        },
        {
          "internalType": "uint256",
          "name": "maxResalePrice",
          "type": "uint256"
        }
      ],
      "name": "mintTicket",
      "outputs": [
        {
          "internalType": "uint256",
          "name": "",
          "type": "uint256"
        }
      ],
      "stateMutability": "nonpayable",
      "type": "function"
    },
    {
      "inputs": [],
      "name": "name",
      "outputs": [
        {
          "internalType": "string",
          "name": "",
          "type": "string"
        }
      ],
      "stateMutability": "view",
      "type": "function"
    },
    {
      "inputs": [],
      "name": "owner",
      "outputs": [
        {
          "internalType": "address",
          "name": "",
          "type": "address"
        }
      ],
      "stateMutability": "view",
      "type": "function"
    },
    {
      "inputs": [
        {
          "internalType": "uint256",
          "name": "tokenId",
          "type": "uint256"
        }
      ],
      "name": "ownerOf",
      "outputs": [
        {
          "internalType": "address",
          "name": "",
          "type": "address"
        }
      ],
      "stateMutability": "view",
      "type": "function"
    },
    {
      "inputs": [],
      "name": "renounceOwnership",
      "outputs": [],
      "stateMutability": "nonpayable",
      "type": "function"
    },
    {
      "inputs": [
        {
          "internalType": "uint256",
          "name": "",
          "type": "uint256"
        }
      ],
      "name": "resalePrices",
      "outputs": [
        {
          "internalType": "uint256",
          "name": "",
          "type": "uint256"
        }
      ],
      "stateMutability": "view",
      "type": "function"
    },
    {
      "inputs": [
        {
          "internalType": "uint256",
          "name": "tokenId",
          "type": "uint256"
        },
        {
          "internalType": "address",
          "name": "newOwner",
          "type": "address"
        },
        {
          "internalType": "uint256",
          "name": "price",
          "type": "uint256"
        }
      ],
      "name": "resellTicket",
      "outputs": [],
      "stateMutability": "nonpayable",
      "type": "function"
    },
    {
      "inputs": [
        {
          "internalType": "address",
          "name": "from",
          "type": "address"
        },
        {
          "internalType": "address",
          "name": "to",
          "type": "address"
        },
        {
          "internalType": "uint256",
          "name": "tokenId",
          "type": "uint256"
        }
      ],
      "name": "safeTransferFrom",
      "outputs": [],
      "stateMutability": "nonpayable",
      "type": "function"
    },
    {
      "inputs": [
        {
          "internalType": "address",
          "name": "from",
          "type": "address"
        },
        {
          "internalType": "address",
          "name": "to",
          "type": "address"
        },
        {
          "internalType": "uint256",
          "name": "tokenId",
          "type": "uint256"
        },
        {
          "internalType": "bytes",
          "name": "data",
          "type": "bytes"
        }
      ],
      "name": "safeTransferFrom",
      "outputs": [],
      "stateMutability": "nonpayable",
      "type": "function"
    },
    {
      "inputs": [
        {
          "internalType": "address",
          "name": "operator",
          "type": "address"
        },
        {
          "internalType": "bool",
          "name": "approved",
          "type": "bool"
        }
      ],
      "name": "setApprovalForAll",
      "outputs": [],
      "stateMutability": "nonpayable",
      "type": "function"
    },
    {
      "inputs": [
        {
          "internalType": "bytes4",
          "name": "interfaceId",
          "type": "bytes4"
        }
      ],
      "name": "supportsInterface",
      "outputs": [
        {
          "internalType": "bool",
          "name": "",
          "type": "bool"
        }
      ],
      "stateMutability": "view",
      "type": "function"
    },
    {
      "inputs": [],
      "name": "symbol",
      "outputs": [
        {
          "internalType": "string",
          "name": "",
          "type": "string"
        }
      ],
      "stateMutability": "view",
      "type": "function"
    },
    {
      "inputs": [
        {
          "internalType": "uint256",
          "name": "tokenId",
          "type": "uint256"
        }
      ],
      "name": "tokenURI",
      "outputs": [
        {
          "internalType": "string",
          "name": "",
          "type": "string"
        }
      ],
      "stateMutability": "view",
      "type": "function"
    },
    {
      "inputs": [
        {
          "internalType": "address",
          "name": "from",
          "type": "address"
        },
        {
          "internalType": "address",
          "name": "to",
          "type": "address"
        },
        {
          "internalType": "uint256",
          "name": "tokenId",
          "type": "uint256"
        }
      ],
      "name": "transferFrom",
      "outputs": [],
      "stateMutability": "nonpayable",
      "type": "function"
    },
    {
      "inputs": [
        {
          "internalType": "address",
          "name": "newOwner",
          "type": "address"
        }
      ],
      "name": "transferOwnership",
      "outputs": [],
      "stateMutability": "nonpayable",
      "type": "function"
    },
    {
      "inputs": [
        {
          "internalType": "uint256",
          "name": "",
          "type": "uint256"
        }
      ],
      "name": "usedTickets",
      "outputs": [
        {
          "internalType": "bool",
          "name": "",
          "type": "bool"
        }
      ],
      "stateMutability": "view",
      "type": "function"
    },
    {
      "inputs": [
        {
          "internalType": "uint256",
          "name": "tokenId",
          "type": "uint256"
        }
      ],
      "name": "validateTicket",
      "outputs": [],
      "stateMutability": "nonpayable",
      "type": "function"
    }
  ],
  "bytecode": "0x608060405234801561001057600080fd5b506040516133a23803806133a28339818101604052810190610032919061037a565b80838381600090816100449190610626565b5080600190816100549190610626565b505050600073ffffffffffffffffffffffffffffffffffffffff168173ffffffffffffffffffffffffffffffffffffffff16036100c95760006040517f1e4fbdf70000000000000000000000000000000000000000000000000000000081526004016100c09190610707565b60405180910390fd5b6100d8816100e160201b60201c565b50505050610722565b6000600760009054906101000a900473ffffffffffffffffffffffffffffffffffffffff16905081600760006101000a81548173ffffffffffffffffffffffffffffffffffffffff021916908373ffffffffffffffffffffffffffffffffffffffff1602179055508173ffffffffffffffffffffffffffffffffffffffff168173ffffffffffffffffffffffffffffffffffffffff167f8be0079c531659141344cd1fd0a4f28419497f9722a3daafe3b4186f6b6457e060405160405180910390a35050565b6000604051905090565b600080fd5b600080fd5b600080fd5b600080fd5b6000601f19601f8301169050919050565b7f4e487b7100000000000000000000000000000000000000000000000000000000600052604160045260246000fd5b61020e826101c5565b810181811067ffffffffffffffff8211171561022d5761022c6101d6565b5b80604052505050565b60006102406101a7565b905061024c8282610205565b919050565b600067ffffffffffffffff82111561026c5761026b6101d6565b5b610275826101c5565b9050602081019050919050565b60005b838110156102a0578082015181840152602081019050610285565b60008484015250505050565b60006102bf6102ba84610251565b610236565b9050828152602081018484840111156102db576102da6101c0565b5b6102e6848285610282565b509392505050565b600082601f830112610303576103026101bb565b5b81516103138482602086016102ac565b91505092915050565b600073ffffffffffffffffffffffffffffffffffffffff82169050919050565b60006103478261031c565b9050919050565b6103578161033c565b811461036257600080fd5b50565b6000815190506103748161034e565b92915050565b600080600060608486031215610393576103926101b1565b5b600084015167ffffffffffffffff8111156103b1576103b06101b6565b5b6103bd868287016102ee565b935050602084015167ffffffffffffffff8111156103de576103dd6101b6565b5b6103ea868287016102ee565b92505060406103fb86828701610365565b9150509250925092565b600081519050919050565b7f4e487b7100000000000000000000000000000000000000000000000000000000600052602260045260246000fd5b6000600282049050600182168061045757607f821691505b60208210810361046a57610469610410565b5b50919050565b60008190508160005260206000209050919050565b60006020601f8301049050919050565b600082821b905092915050565b6000600883026104d27fffffffffffffffffffffffffffffffffffffffffffffffffffffffffffffffff82610495565b6104dc8683610495565b95508019841693508086168417925050509392505050565b6000819050919050565b6000819050919050565b600061052361051e610519846104f4565b6104fe565b6104f4565b9050919050565b6000819050919050565b61053d83610508565b6105516105498261052a565b8484546104a2565b825550505050565b600090565b610566610559565b610571818484610534565b505050565b5b818110156105955761058a60008261055e565b600181019050610577565b5050565b601f8211156105da576105ab81610470565b6105b484610485565b810160208510156105c3578190505b6105d76105cf85610485565b830182610576565b50505b505050565b600082821c905092915050565b60006105fd600019846008026105df565b1980831691505092915050565b600061061683836105ec565b9150826002028217905092915050565b61062f82610405565b67ffffffffffffffff811115610648576106476101d6565b5b610652825461043f565b61065d828285610599565b600060209050601f831160018114610690576000841561067e578287015190505b610688858261060a565b8655506106f0565b601f19841661069e86610470565b60005b828110156106c6578489015182556001820191506020850194506020810190506106a1565b868310156106e357848901516106df601f8916826105ec565b8355505b6001600288020188555050505b505050505050565b6107018161033c565b82525050565b600060208201905061071c60008301846106f8565b92915050565b612c71806107316000396000f3fe608060405234801561001057600080fd5b50600436106101375760003560e01c8063715018a6116100b8578063aa11487a1161007c578063aa11487a14610338578063b88d4fde14610368578063c87b56dd14610384578063cf7a3141146103b4578063e985e9c5146103e4578063f2fde38b1461041457610137565b8063715018a6146102a657806371efdc21146102b05780638da5cb5b146102e057806395d89b41146102fe578063a22cb4651461031c57610137565b806323b872dd116100ff57806323b872dd146101f25780632b1014841461020e57806342842e0e1461022a5780636352211e1461024657806370a082311461027657610137565b806301ffc9a71461013c578063054ae7df1461016c57806306fdde0314610188578063081812fc146101a6578063095ea7b3146101d6575b600080fd5b61015660048036038101906101519190611e5a565b610430565b6040516101639190611ea2565b60405180910390f35b61018660048036038101906101819190611ef3565b610491565b005b610190610560565b60405161019d9190611fb0565b60405180910390f35b6101c060048036038101906101bb9190611ef3565b6105f2565b6040516101cd9190612013565b60405180910390f35b6101f060048036038101906101eb919061205a565b61060e565b005b61020c6004803603810190610207919061209a565b610624565b005b610228600480360381019061022391906120ed565b610726565b005b610244600480360381019061023f919061209a565b6108b3565b005b610260600480360381019061025b9190611ef3565b6108d3565b60405161026d9190612013565b60405180910390f35b610290600480360381019061028b9190612140565b6108e5565b60405161029d919061217c565b60405180910390f35b6102ae61099f565b005b6102ca60048036038101906102c59190611ef3565b6109b3565b6040516102d79190611ea2565b60405180910390f35b6102e86109d3565b6040516102f59190612013565b60405180910390f35b6103066109fd565b6040516103139190611fb0565b60405180910390f35b610336600480360381019061033191906121c3565b610a8f565b005b610352600480360381019061034d9190611ef3565b610aa5565b60405161035f919061217c565b60405180910390f35b610382600480360381019061037d9190612338565b610abd565b005b61039e60048036038101906103999190611ef3565b610ae2565b6040516103ab9190611fb0565b60405180910390f35b6103ce60048036038101906103c9919061245c565b610bf5565b6040516103db919061217c565b60405180910390f35b6103fe60048036038101906103f991906124cb565b610ca5565b60405161040b9190611ea2565b60405180910390f35b61042e60048036038101906104299190612140565b610d39565b005b6000634906490660e01b7bffffffffffffffffffffffffffffffffffffffffffffffffffffffff1916827bffffffffffffffffffffffffffffffffffffffffffffffffffffffff1916148061048a575061048982610dbf565b5b9050919050565b610499610ea1565b600a600082815260200190815260200160002060009054906101000a900460ff16156104fa576040517f08c379a00000000000000000000000000000000000000000000000000000000081526004016104f190612557565b60405180910390fd5b6001600a600083815260200190815260200160002060006101000a81548160ff0219169083151502179055507f57bbca7d06236724b863845d5ac4a5b2431ab54922f89f8644ec9e837b7b5e0481604051610555919061217c565b60405180910390a150565b60606000805461056f906125a6565b80601f016020809104026020016040519081016040528092919081815260200182805461059b906125a6565b80156105e85780601f106105bd576101008083540402835291602001916105e8565b820191906000526020600020905b8154815290600101906020018083116105cb57829003601f168201915b5050505050905090565b60006105fd82610f28565b5061060782610fb0565b9050919050565b610620828261061b610fed565b610ff5565b5050565b600073ffffffffffffffffffffffffffffffffffffffff168273ffffffffffffffffffffffffffffffffffffffff16036106965760006040517f64a0ae9200000000000000000000000000000000000000000000000000000000815260040161068d9190612013565b60405180910390fd5b60006106aa83836106a5610fed565b611007565b90508373ffffffffffffffffffffffffffffffffffffffff168173ffffffffffffffffffffffffffffffffffffffff1614610720578382826040517f64283d7b000000000000000000000000000000000000000000000000000000008152600401610717939291906125d7565b60405180910390fd5b50505050565b3373ffffffffffffffffffffffffffffffffffffffff16610746846108d3565b73ffffffffffffffffffffffffffffffffffffffff161461079c576040517f08c379a00000000000000000000000000000000000000000000000000000000081526004016107939061265a565b60405180910390fd5b60096000848152602001908152602001600020548111156107f2576040517f08c379a00000000000000000000000000000000000000000000000000000000081526004016107e9906126c6565b60405180910390fd5b600a600084815260200190815260200160002060009054906101000a900460ff1615610853576040517f08c379a000000000000000000000000000000000000000000000000000000000815260040161084a90612732565b60405180910390fd5b61085e3383856108b3565b8173ffffffffffffffffffffffffffffffffffffffff167fc40e38d52641f445f65e6b37a0df098ef6a34a66ff5d6c176b0f1209f6a0792c84836040516108a6929190612752565b60405180910390a2505050565b6108ce83838360405180602001604052806000815250610abd565b505050565b60006108de82610f28565b9050919050565b60008073ffffffffffffffffffffffffffffffffffffffff168273ffffffffffffffffffffffffffffffffffffffff16036109585760006040517f89c62b6400000000000000000000000000000000000000000000000000000000815260040161094f9190612013565b60405180910390fd5b600360008373ffffffffffffffffffffffffffffffffffffffff1673ffffffffffffffffffffffffffffffffffffffff168152602001908152602001600020549050919050565b6109a7610ea1565b6109b16000611221565b565b600a6020528060005260406000206000915054906101000a900460ff1681565b6000600760009054906101000a900473ffffffffffffffffffffffffffffffffffffffff16905090565b606060018054610a0c906125a6565b80601f0160208091040260200160405190810160405280929190818152602001828054610a38906125a6565b8015610a855780601f10610a5a57610100808354040283529160200191610a85565b820191906000526020600020905b815481529060010190602001808311610a6857829003601f168201915b5050505050905090565b610aa1610a9a610fed565b83836112e7565b5050565b60096020528060005260406000206000915090505481565b610ac8848484610624565b610adc610ad3610fed565b85858585611456565b50505050565b6060610aed82610f28565b506000600660008481526020019081526020016000208054610b0e906125a6565b80601f0160208091040260200160405190810160405280929190818152602001828054610b3a906125a6565b8015610b875780601f10610b5c57610100808354040283529160200191610b87565b820191906000526020600020905b815481529060010190602001808311610b6a57829003601f168201915b505050505090506000610b98611607565b90506000815103610bad578192505050610bf0565b600082511115610be2578082604051602001610bca9291906127b7565b60405160208183030381529060405292505050610bf0565b610beb8461161e565b925050505b919050565b6000610bff610ea1565b6000600854905060086000815480929190610c199061280a565b9190505550610c288582611687565b610c328185611780565b8260096000838152602001908152602001600020819055508473ffffffffffffffffffffffffffffffffffffffff167ff16f1e8b680ea7f1e8a1f849eb82762cba60ddcef854d36909e3173483281c8c8286604051610c92929190612852565b60405180910390a2809150509392505050565b6000600560008473ffffffffffffffffffffffffffffffffffffffff1673ffffffffffffffffffffffffffffffffffffffff16815260200190815260200160002060008373ffffffffffffffffffffffffffffffffffffffff1673ffffffffffffffffffffffffffffffffffffffff16815260200190815260200160002060009054906101000a900460ff16905092915050565b610d41610ea1565b600073ffffffffffffffffffffffffffffffffffffffff168173ffffffffffffffffffffffffffffffffffffffff1603610db35760006040517f1e4fbdf7000000000000000000000000000000000000000000000000000000008152600401610daa9190612013565b60405180910390fd5b610dbc81611221565b50565b60007f80ac58cd000000000000000000000000000000000000000000000000000000007bffffffffffffffffffffffffffffffffffffffffffffffffffffffff1916827bffffffffffffffffffffffffffffffffffffffffffffffffffffffff19161480610e8a57507f5b5e139f000000000000000000000000000000000000000000000000000000007bffffffffffffffffffffffffffffffffffffffffffffffffffffffff1916827bffffffffffffffffffffffffffffffffffffffffffffffffffffffff1916145b80610e9a5750610e99826117dc565b5b9050919050565b610ea9610fed565b73ffffffffffffffffffffffffffffffffffffffff16610ec76109d3565b73ffffffffffffffffffffffffffffffffffffffff1614610f2657610eea610fed565b6040517f118cdaa7000000000000000000000000000000000000000000000000000000008152600401610f1d9190612013565b60405180910390fd5b565b600080610f3483611846565b9050600073ffffffffffffffffffffffffffffffffffffffff168173ffffffffffffffffffffffffffffffffffffffff1603610fa757826040517f7e273289000000000000000000000000000000000000000000000000000000008152600401610f9e919061217c565b60405180910390fd5b80915050919050565b60006004600083815260200190815260200160002060009054906101000a900473ffffffffffffffffffffffffffffffffffffffff169050919050565b600033905090565b6110028383836001611883565b505050565b60008061101384611846565b9050600073ffffffffffffffffffffffffffffffffffffffff168373ffffffffffffffffffffffffffffffffffffffff161461105557611054818486611a48565b5b600073ffffffffffffffffffffffffffffffffffffffff168173ffffffffffffffffffffffffffffffffffffffff16146110e657611097600085600080611883565b6001600360008373ffffffffffffffffffffffffffffffffffffffff1673ffffffffffffffffffffffffffffffffffffffff168152602001908152602001600020600082825403925050819055505b600073ffffffffffffffffffffffffffffffffffffffff168573ffffffffffffffffffffffffffffffffffffffff1614611169576001600360008773ffffffffffffffffffffffffffffffffffffffff1673ffffffffffffffffffffffffffffffffffffffff168152602001908152602001600020600082825401925050819055505b846002600086815260200190815260200160002060006101000a81548173ffffffffffffffffffffffffffffffffffffffff021916908373ffffffffffffffffffffffffffffffffffffffff160217905550838573ffffffffffffffffffffffffffffffffffffffff168273ffffffffffffffffffffffffffffffffffffffff167fddf252ad1be2c89b69c2b068fc378daa952ba7f163c4a11628f55a4df523b3ef60405160405180910390a4809150509392505050565b6000600760009054906101000a900473ffffffffffffffffffffffffffffffffffffffff16905081600760006101000a81548173ffffffffffffffffffffffffffffffffffffffff021916908373ffffffffffffffffffffffffffffffffffffffff1602179055508173ffffffffffffffffffffffffffffffffffffffff168173ffffffffffffffffffffffffffffffffffffffff167f8be0079c531659141344cd1fd0a4f28419497f9722a3daafe3b4186f6b6457e060405160405180910390a35050565b600073ffffffffffffffffffffffffffffffffffffffff168273ffffffffffffffffffffffffffffffffffffffff160361135857816040517f5b08ba1800000000000000000000000000000000000000000000000000000000815260040161134f9190612013565b60405180910390fd5b80600560008573ffffffffffffffffffffffffffffffffffffffff1673ffffffffffffffffffffffffffffffffffffffff16815260200190815260200160002060008473ffffffffffffffffffffffffffffffffffffffff1673ffffffffffffffffffffffffffffffffffffffff16815260200190815260200160002060006101000a81548160ff0219169083151502179055508173ffffffffffffffffffffffffffffffffffffffff168373ffffffffffffffffffffffffffffffffffffffff167f17307eab39ab6107e8899845ad3d59bd9653f200f220920489ca2b5937696c31836040516114499190611ea2565b60405180910390a3505050565b60008373ffffffffffffffffffffffffffffffffffffffff163b1115611600578273ffffffffffffffffffffffffffffffffffffffff1663150b7a02868685856040518563ffffffff1660e01b81526004016114b594939291906128d7565b6020604051808303816000875af19250505080156114f157506040513d601f19601f820116820180604052508101906114ee9190612938565b60015b611575573d8060008114611521576040519150601f19603f3d011682016040523d82523d6000602084013e611526565b606091505b50600081510361156d57836040517f64a0ae920000000000000000000000000000000000000000000000000000000081526004016115649190612013565b60405180910390fd5b805181602001fd5b63150b7a0260e01b7bffffffffffffffffffffffffffffffffffffffffffffffffffffffff1916817bffffffffffffffffffffffffffffffffffffffffffffffffffffffff1916146115fe57836040517f64a0ae920000000000000000000000000000000000000000000000000000000081526004016115f59190612013565b60405180910390fd5b505b5050505050565b606060405180602001604052806000815250905090565b606061162982610f28565b506000611634611607565b90506000815111611654576040518060200160405280600081525061167f565b8061165e84611b0c565b60405160200161166f9291906127b7565b6040516020818303038152906040525b915050919050565b600073ffffffffffffffffffffffffffffffffffffffff168273ffffffffffffffffffffffffffffffffffffffff16036116f95760006040517f64a0ae920000000000000000000000000000000000000000000000000000000081526004016116f09190612013565b60405180910390fd5b600061170783836000611007565b9050600073ffffffffffffffffffffffffffffffffffffffff168173ffffffffffffffffffffffffffffffffffffffff161461177b5760006040517f73c6ac6e0000000000000000000000000000000000000000000000000000000081526004016117729190612013565b60405180910390fd5b505050565b806006600084815260200190815260200160002090816117a09190612b11565b507ff8e1a15aba9398e019f0b49df1a4fde98ee17ae345cb5f6b5e2c27f5033e8ce7826040516117d0919061217c565b60405180910390a15050565b60007f01ffc9a7000000000000000000000000000000000000000000000000000000007bffffffffffffffffffffffffffffffffffffffffffffffffffffffff1916827bffffffffffffffffffffffffffffffffffffffffffffffffffffffff1916149050919050565b60006002600083815260200190815260200160002060009054906101000a900473ffffffffffffffffffffffffffffffffffffffff169050919050565b80806118bc5750600073ffffffffffffffffffffffffffffffffffffffff168273ffffffffffffffffffffffffffffffffffffffff1614155b156119f05760006118cc84610f28565b9050600073ffffffffffffffffffffffffffffffffffffffff168373ffffffffffffffffffffffffffffffffffffffff161415801561193757508273ffffffffffffffffffffffffffffffffffffffff168173ffffffffffffffffffffffffffffffffffffffff1614155b801561194a57506119488184610ca5565b155b1561198c57826040517fa9fbf51f0000000000000000000000000000000000000000000000000000000081526004016119839190612013565b60405180910390fd5b81156119ee57838573ffffffffffffffffffffffffffffffffffffffff168273ffffffffffffffffffffffffffffffffffffffff167f8c5be1e5ebec7d5bd14f71427d1e84f3dd0314c0f7b2291e5b200ac8c7c3b92560405160405180910390a45b505b836004600085815260200190815260200160002060006101000a81548173ffffffffffffffffffffffffffffffffffffffff021916908373ffffffffffffffffffffffffffffffffffffffff16021790555050505050565b611a53838383611bda565b611b0757600073ffffffffffffffffffffffffffffffffffffffff168373ffffffffffffffffffffffffffffffffffffffff1603611ac857806040517f7e273289000000000000000000000000000000000000000000000000000000008152600401611abf919061217c565b60405180910390fd5b81816040517f177e802f000000000000000000000000000000000000000000000000000000008152600401611afe929190612be3565b60405180910390fd5b505050565b606060006001611b1b84611c9b565b01905060008167ffffffffffffffff811115611b3a57611b3961220d565b5b6040519080825280601f01601f191660200182016040528015611b6c5781602001600182028036833780820191505090505b509050600082602001820190505b600115611bcf578080600190039150507f3031323334353637383961626364656600000000000000000000000000000000600a86061a8153600a8581611bc357611bc2612c0c565b5b04945060008503611b7a575b819350505050919050565b60008073ffffffffffffffffffffffffffffffffffffffff168373ffffffffffffffffffffffffffffffffffffffff1614158015611c9257508273ffffffffffffffffffffffffffffffffffffffff168473ffffffffffffffffffffffffffffffffffffffff161480611c535750611c528484610ca5565b5b80611c9157508273ffffffffffffffffffffffffffffffffffffffff16611c7983610fb0565b73ffffffffffffffffffffffffffffffffffffffff16145b5b90509392505050565b600080600090507a184f03e93ff9f4daa797ed6e38ed64bf6a1f0100000000000000008310611cf9577a184f03e93ff9f4daa797ed6e38ed64bf6a1f0100000000000000008381611cef57611cee612c0c565b5b0492506040810190505b6d04ee2d6d415b85acef81000000008310611d36576d04ee2d6d415b85acef81000000008381611d2c57611d2b612c0c565b5b0492506020810190505b662386f26fc100008310611d6557662386f26fc100008381611d5b57611d5a612c0c565b5b0492506010810190505b6305f5e1008310611d8e576305f5e1008381611d8457611d83612c0c565b5b0492506008810190505b6127108310611db3576127108381611da957611da8612c0c565b5b0492506004810190505b60648310611dd65760648381611dcc57611dcb612c0c565b5b0492506002810190505b600a8310611de5576001810190505b80915050919050565b6000604051905090565b600080fd5b600080fd5b60007fffffffff0000000000000000000000000000000000000000000000000000000082169050919050565b611e3781611e02565b8114611e4257600080fd5b50565b600081359050611e5481611e2e565b92915050565b600060208284031215611e7057611e6f611df8565b5b6000611e7e84828501611e45565b91505092915050565b60008115159050919050565b611e9c81611e87565b82525050565b6000602082019050611eb76000830184611e93565b92915050565b6000819050919050565b611ed081611ebd565b8114611edb57600080fd5b50565b600081359050611eed81611ec7565b92915050565b600060208284031215611f0957611f08611df8565b5b6000611f1784828501611ede565b91505092915050565b600081519050919050565b600082825260208201905092915050565b60005b83811015611f5a578082015181840152602081019050611f3f565b60008484015250505050565b6000601f19601f8301169050919050565b6000611f8282611f20565b611f8c8185611f2b565b9350611f9c818560208601611f3c565b611fa581611f66565b840191505092915050565b60006020820190508181036000830152611fca8184611f77565b905092915050565b600073ffffffffffffffffffffffffffffffffffffffff82169050919050565b6000611ffd82611fd2565b9050919050565b61200d81611ff2565b82525050565b60006020820190506120286000830184612004565b92915050565b61203781611ff2565b811461204257600080fd5b50565b6000813590506120548161202e565b92915050565b6000806040838503121561207157612070611df8565b5b600061207f85828601612045565b925050602061209085828601611ede565b9150509250929050565b6000806000606084860312156120b3576120b2611df8565b5b60006120c186828701612045565b93505060206120d286828701612045565b92505060406120e386828701611ede565b9150509250925092565b60008060006060848603121561210657612105611df8565b5b600061211486828701611ede565b935050602061212586828701612045565b925050604061213686828701611ede565b9150509250925092565b60006020828403121561215657612155611df8565b5b600061216484828501612045565b91505092915050565b61217681611ebd565b82525050565b6000602082019050612191600083018461216d565b92915050565b6121a081611e87565b81146121ab57600080fd5b50565b6000813590506121bd81612197565b92915050565b600080604083850312156121da576121d9611df8565b5b60006121e885828601612045565b92505060206121f9858286016121ae565b9150509250929050565b600080fd5b600080fd5b7f4e487b7100000000000000000000000000000000000000000000000000000000600052604160045260246000fd5b61224582611f66565b810181811067ffffffffffffffff821117156122645761226361220d565b5b80604052505050565b6000612277611dee565b9050612283828261223c565b919050565b600067ffffffffffffffff8211156122a3576122a261220d565b5b6122ac82611f66565b9050602081019050919050565b82818337600083830152505050565b60006122db6122d684612288565b61226d565b9050828152602081018484840111156122f7576122f6612208565b5b6123028482856122b9565b509392505050565b600082601f83011261231f5761231e612203565b5b813561232f8482602086016122c8565b91505092915050565b6000806000806080858703121561235257612351611df8565b5b600061236087828801612045565b945050602061237187828801612045565b935050604061238287828801611ede565b925050606085013567ffffffffffffffff8111156123a3576123a2611dfd565b5b6123af8782880161230a565b91505092959194509250565b600067ffffffffffffffff8211156123d6576123d561220d565b5b6123df82611f66565b9050602081019050919050565b60006123ff6123fa846123bb565b61226d565b90508281526020810184848401111561241b5761241a612208565b5b6124268482856122b9565b509392505050565b600082601f83011261244357612442612203565b5b81356124538482602086016123ec565b91505092915050565b60008060006060848603121561247557612474611df8565b5b600061248386828701612045565b935050602084013567ffffffffffffffff8111156124a4576124a3611dfd565b5b6124b08682870161242e565b92505060406124c186828701611ede565b9150509250925092565b600080604083850312156124e2576124e1611df8565b5b60006124f085828601612045565b925050602061250185828601612045565b9150509250929050565b7f5469636b657420616c7265616479207573656400000000000000000000000000600082015250565b6000612541601383611f2b565b915061254c8261250b565b602082019050919050565b6000602082019050818103600083015261257081612534565b9050919050565b7f4e487b7100000000000000000000000000000000000000000000000000000000600052602260045260246000fd5b600060028204905060018216806125be57607f821691505b6020821081036125d1576125d0612577565b5b50919050565b60006060820190506125ec6000830186612004565b6125f9602083018561216d565b6126066040830184612004565b949350505050565b7f4e6f7420746865207469636b6574206f776e6572000000000000000000000000600082015250565b6000612644601483611f2b565b915061264f8261260e565b602082019050919050565b6000602082019050818103600083015261267381612637565b9050919050565b7f45786365656473206d617820726573616c652070726963650000000000000000600082015250565b60006126b0601883611f2b565b91506126bb8261267a565b602082019050919050565b600060208201905081810360008301526126df816126a3565b9050919050565b7f55736564207469636b6574732063616e6e6f74206265207265736f6c64000000600082015250565b600061271c601d83611f2b565b9150612727826126e6565b602082019050919050565b6000602082019050818103600083015261274b8161270f565b9050919050565b6000604082019050612767600083018561216d565b612774602083018461216d565b9392505050565b600081905092915050565b600061279182611f20565b61279b818561277b565b93506127ab818560208601611f3c565b80840191505092915050565b60006127c38285612786565b91506127cf8284612786565b91508190509392505050565b7f4e487b7100000000000000000000000000000000000000000000000000000000600052601160045260246000fd5b600061281582611ebd565b91507fffffffffffffffffffffffffffffffffffffffffffffffffffffffffffffffff8203612847576128466127db565b5b600182019050919050565b6000604082019050612867600083018561216d565b81810360208301526128798184611f77565b90509392505050565b600081519050919050565b600082825260208201905092915050565b60006128a982612882565b6128b3818561288d565b93506128c3818560208601611f3c565b6128cc81611f66565b840191505092915050565b60006080820190506128ec6000830187612004565b6128f96020830186612004565b612906604083018561216d565b8181036060830152612918818461289e565b905095945050505050565b60008151905061293281611e2e565b92915050565b60006020828403121561294e5761294d611df8565b5b600061295c84828501612923565b91505092915050565b60008190508160005260206000209050919050565b60006020601f8301049050919050565b600082821b905092915050565b6000600883026129c77fffffffffffffffffffffffffffffffffffffffffffffffffffffffffffffffff8261298a565b6129d1868361298a565b95508019841693508086168417925050509392505050565b6000819050919050565b6000612a0e612a09612a0484611ebd565b6129e9565b611ebd565b9050919050565b6000819050919050565b612a28836129f3565b612a3c612a3482612a15565b848454612997565b825550505050565b600090565b612a51612a44565b612a5c818484612a1f565b505050565b5b81811015612a8057612a75600082612a49565b600181019050612a62565b5050565b601f821115612ac557612a9681612965565b612a9f8461297a565b81016020851015612aae578190505b612ac2612aba8561297a565b830182612a61565b50505b505050565b600082821c905092915050565b6000612ae860001984600802612aca565b1980831691505092915050565b6000612b018383612ad7565b9150826002028217905092915050565b612b1a82611f20565b67ffffffffffffffff811115612b3357612b3261220d565b5b612b3d82546125a6565b612b48828285612a84565b600060209050601f831160018114612b7b5760008415612b69578287015190505b612b738582612af5565b865550612bdb565b601f198416612b8986612965565b60005b82811015612bb157848901518255600182019150602085019450602081019050612b8c565b86831015612bce5784890151612bca601f891682612ad7565b8355505b6001600288020188555050505b505050505050565b6000604082019050612bf86000830185612004565b612c05602083018461216d565b9392505050565b7f4e487b7100000000000000000000000000000000000000000000000000000000600052601260045260246000fdfea2646970667358221220370a79d9fac56dc99aa1721fe136aa4c5d915d052905191a023b86af14fc6bdd64736f6c634300081c0033",
  "linkReferences": {},
  "deployedLinkReferences": {}
}