{
  "_format": "hh-sol-artifact-1",
  "contractName": "TicketNFT",
  "sourceName": "contracts/TicketNFT.sol",
  "abi": [
    {
      "inputs": [
        {
          "internalType": "string",
          "name": "name",
          "type": "string"
        },
        {
          "internalType": "string",
          "name": "symbol",
          "type": "string"
        },
        {
          "internalType": "address",
          "name": "initialOwner",
          "type": "address"
        }
      ],
      "stateMutability": "nonpayable",
      "type": "constructor"
    },
    {
      "inputs": [
        {
          "internalType": "address",
          "name": "sender",
          "type": "address"
        },
        {
          "internalType": "uint256",
          "name": "tokenId",
          "type": "uint256"
        },
        {
          "internalType": "address",
          "name": "owner",
          "type": "address"
        }
      ],
      "name": "ERC721IncorrectOwner",
      "type": "error"
    },
    {
      "inputs": [
        {
          "internalType": "address",
          "name": "operator",
          "type": "address"
        },
        {
          "internalType": "uint256",
          "name": "tokenId",
          "type": "uint256"
        }
      ],
      "name": "ERC721InsufficientApproval",
      "type": "error"
    },
    {
      "inputs": [
        {
          "internalType": "address",
          "name": "approver",
          "type": "address"
        }
      ],
      "name": "ERC721InvalidApprover",
      "type": "error"
    },
    {
      "inputs": [
        {
          "internalType": "address",
          "name": "operator",
          "type": "address"
        }
      ],
      "name": "ERC721InvalidOperator",
      "type": "error"
    },
    {
      "inputs": [
        {
          "internalType": "address",
          "name": "owner",
          "type": "address"
        }
      ],
      "name": "ERC721InvalidOwner",
      "type": "error"
    },
    {
      "inputs": [
        {
          "internalType": "address",
          "name": "receiver",
          "type": "address"
        }
      ],
      "name": "ERC721InvalidReceiver",
      "type": "error"
    },
    {
      "inputs": [
        {
          "internalType": "address",
          "name": "sender",
          "type": "address"
        }
      ],
      "name": "ERC721InvalidSender",
      "type": "error"
    },
    {
      "inputs": [
        {
          "internalType": "uint256",
          "name": "tokenId",
          "type": "uint256"
        }
      ],
      "name": "ERC721NonexistentToken",
      "type": "error"
    },
    {
      "inputs": [
        {
          "internalType": "address",
          "name": "owner",
          "type": "address"
        }
      ],
      "name": "OwnableInvalidOwner",
      "type": "error"
    },
    {
      "inputs": [
        {
          "internalType": "address",
          "name": "account",
          "type": "address"
        }
      ],
      "name": "OwnableUnauthorizedAccount",
      "type": "error"
    },
    {
      "anonymous": false,
      "inputs": [
        {
          "indexed": true,
          "internalType": "address",
          "name": "owner",
          "type": "address"
        },
        {
          "indexed": true,
          "internalType": "address",
          "name": "approved",
          "type": "address"
        },
        {
          "indexed": true,
          "internalType": "uint256",
          "name": "tokenId",
          "type": "uint256"
        }
      ],
      "name": "Approval",
      "type": "event"
    },
    {
      "anonymous": false,
      "inputs": [
        {
          "indexed": true,
          "internalType": "address",
          "name": "owner",
          "type": "address"
        },
        {
          "indexed": true,
          "internalType": "address",
          "name": "operator",
          "type": "address"
        },
        {
          "indexed": false,
          "internalType": "bool",
          "name": "approved",
          "type": "bool"
        }
      ],
      "name": "ApprovalForAll",
      "type": "event"
    },
    {
      "anonymous": false,
      "inputs": [
        {
          "indexed": false,
          "internalType": "uint256",
          "name": "_fromTokenId",
          "type": "uint256"
        },
        {
          "indexed": false,
          "internalType": "uint256",
          "name": "_toTokenId",
          "type": "uint256"
        }
      ],
      "name": "BatchMetadataUpdate",
      "type": "event"
    },
    {
      "anonymous": false,
      "inputs": [
        {
          "indexed": false,
          "internalType": "uint256",
          "name": "_tokenId",
          "type": "uint256"
        }
      ],
      "name": "MetadataUpdate",
      "type": "event"
    },
    {
      "anonymous": false,
      "inputs": [
        {
          "indexed": true,
          "internalType": "address",
          "name": "previousOwner",
          "type": "address"
        },
        {
          "indexed": true,
          "internalType": "address",
          "name": "newOwner",
          "type": "address"
        }
      ],
      "name": "OwnershipTransferred",
      "type": "event"
    },
    {
      "anonymous": false,
      "inputs": [
        {
          "indexed": true,
          "internalType": "address",
          "name": "owner",
          "type": "address"
        },
        {
          "indexed": false,
          "internalType": "uint256",
          "name": "tokenId",
          "type": "uint256"
        },
        {
          "indexed": false,
          "internalType": "string",
          "name": "tokenURI",
          "type": "string"
        }
      ],
      "name": "TicketMinted",
      "type": "event"
    },
    {
      "anonymous": false,
      "inputs": [
        {
          "indexed": false,
          "internalType": "uint256",
          "name": "tokenId",
          "type": "uint256"
        },
        {
          "indexed": true,
          "internalType": "address",
          "name": "newOwner",
          "type": "address"
        },
        {
          "indexed": false,
          "internalType": "uint256",
          "name": "price",
          "type": "uint256"
        }
      ],
      "name": "TicketResold",
      "type": "event"
    },
    {
      "anonymous": false,
      "inputs": [
        {
          "indexed": false,
          "internalType": "uint256",
          "name": "tokenId",
          "type": "uint256"
        }
      ],
      "name": "TicketValidated",
      "type": "event"
    },
    {
      "anonymous": false,
      "inputs": [
        {
          "indexed": true,
          "internalType": "address",
          "name": "from",
          "type": "address"
        },
        {
          "indexed": true,
          "internalType": "address",
          "name": "to",
          "type": "address"
        },
        {
          "indexed": true,
          "internalType": "uint256",
          "name": "tokenId",
          "type": "uint256"
        }
      ],
      "name": "Transfer",
      "type": "event"
    },
    {
      "inputs": [
        {
          "internalType": "address",
          "name": "to",
          "type": "address"
        },
        {
          "internalType": "uint256",
          "name": "tokenId",
          "type": "uint256"
        }
      ],
      "name": "approve",
      "outputs": [],
      "stateMutability": "nonpayable",
      "type": "function"
    },
    {
      "inputs": [
        {
          "internalType": "address",
          "name": "owner",
          "type": "address"
        }
      ],
      "name": "balanceOf",
      "outputs": [
        {
          "internalType": "uint256",
          "name": "",
          "type": "uint256"
        }
      ],
      "stateMutability": "view",
      "type": "function"
    },
    {
      "inputs": [
        {
          "internalType": "uint256",
          "name": "tokenId",
          "type": "uint256"
        }
      ],
      "name": "getApproved",
      "outputs": [
        {
          "internalType": "address",
          "name": "",
          "type": "address"
        }
      ],
      "stateMutability": "view",
      "type": "function"
    },
    {
      "inputs": [
        {
          "internalType": "address",
          "name": "owner",
          "type": "address"
        },
        {
          "internalType": "address",
          "name": "operator",
          "type": "address"
        }
      ],
      "name": "isApprovedForAll",
      "outputs": [
        {
          "internalType": "bool",
          "name": "",
          "type": "bool"
        }
      ],
      "stateMutability": "view",
      "type": "function"
    },
    {
      "inputs": [
        {
          "internalType": "address",
          "name": "to",
          "type": "address"
        },
        {
          "internalType": "string",
          "name": "tokenURI",
          "type": "string"
        },
        {
          "internalType": "uint256",
          "name": "maxResalePrice",
          "type": "uint256"
        }
      ],
      "name": "mintTicket",
      "outputs": [
        {
          "internalType": "uint256",
          "name": "",
          "type": "uint256"
        }
      ],
      "stateMutability": "nonpayable",
      "type": "function"
    },
    {
      "inputs": [],
      "name": "name",
      "outputs": [
        {
          "internalType": "string",
          "name": "",
          "type": "string"
        }
      ],
      "stateMutability": "view",
      "type": "function"
    },
    {
      "inputs": [],
      "name": "owner",
      "outputs": [
        {
          "internalType": "address",
          "name": "",
          "type": "address"
        }
      ],
      "stateMutability": "view",
      "type": "function"
    },
    {
      "inputs": [
        {
          "internalType": "uint256",
          "name": "tokenId",
          "type": "uint256"
        }
      ],
      "name": "ownerOf",
      "outputs": [
        {
          "internalType": "address",
          "name": "",
          "type": "address"
        }
      ],
      "stateMutability": "view",
      "type": "function"
    },
    {
      "inputs": [],
      "name": "renounceOwnership",
      "outputs": [],
      "stateMutability": "nonpayable",
      "type": "function"
    },
    {
      "inputs": [
        {
          "internalType": "uint256",
          "name": "",
          "type": "uint256"
        }
      ],
      "name": "resalePrices",
      "outputs": [
        {
          "internalType": "uint256",
          "name": "",
          "type": "uint256"
        }
      ],
      "stateMutability": "view",
      "type": "function"
    },
    {
      "inputs": [
        {
          "internalType": "uint256",
          "name": "tokenId",
          "type": "uint256"
        },
        {
          "internalType": "address",
          "name": "newOwner",
          "type": "address"
        },
        {
          "internalType": "uint256",
          "name": "price",
          "type": "uint256"
        }
      ],
      "name": "resellTicket",
      "outputs": [],
      "stateMutability": "nonpayable",
      "type": "function"
    },
    {
      "inputs": [
        {
          "internalType": "address",
          "name": "from",
          "type": "address"
        },
        {
          "internalType": "address",
          "name": "to",
          "type": "address"
        },
        {
          "internalType": "uint256",
          "name": "tokenId",
          "type": "uint256"
        }
      ],
      "name": "safeTransferFrom",
      "outputs": [],
      "stateMutability": "nonpayable",
      "type": "function"
    },
    {
      "inputs": [
        {
          "internalType": "address",
          "name": "from",
          "type": "address"
        },
        {
          "internalType": "address",
          "name": "to",
          "type": "address"
        },
        {
          "internalType": "uint256",
          "name": "tokenId",
          "type": "uint256"
        },
        {
          "internalType": "bytes",
          "name": "data",
          "type": "bytes"
        }
      ],
      "name": "safeTransferFrom",
      "outputs": [],
      "stateMutability": "nonpayable",
      "type": "function"
    },
    {
      "inputs": [
        {
          "internalType": "address",
          "name": "operator",
          "type": "address"
        },
        {
          "internalType": "bool",
          "name": "approved",
          "type": "bool"
        }
      ],
      "name": "setApprovalForAll",
      "outputs": [],
      "stateMutability": "nonpayable",
      "type": "function"
    },
    {
      "inputs": [
        {
          "internalType": "bytes4",
          "name": "interfaceId",
          "type": "bytes4"
        }
      ],
      "name": "supportsInterface",
      "outputs": [
        {
          "internalType": "bool",
          "name": "",
          "type": "bool"
        }
      ],
      "stateMutability": "view",
      "type": "function"
    },
    {
      "inputs": [],
      "name": "symbol",
      "outputs": [
        {
          "internalType": "string",
          "name": "",
          "type": "string"
        }
      ],
      "stateMutability": "view",
      "type": "function"
    },
    {
      "inputs": [
        {
          "internalType": "uint256",
          "name": "tokenId",
          "type": "uint256"
        }
      ],
      "name": "tokenURI",
      "outputs": [
        {
          "internalType": "string",
          "name": "",
          "type": "string"
        }
      ],
      "stateMutability": "view",
      "type": "function"
    },
    {
      "inputs": [
        {
          "internalType": "address",
          "name": "from",
          "type": "address"
        },
        {
          "internalType": "address",
          "name": "to",
          "type": "address"
        },
        {
          "internalType": "uint256",
          "name": "tokenId",
          "type": "uint256"
        }
      ],
      "name": "transferFrom",
      "outputs": [],
      "stateMutability": "nonpayable",
      "type": "function"
    },
    {
      "inputs": [
        {
          "internalType": "address",
          "name": "newOwner",
          "type": "address"
        }
      ],
      "name": "transferOwnership",
      "outputs": [],
      "stateMutability": "nonpayable",
      "type": "function"
    },
    {
      "inputs": [
        {
          "internalType": "uint256",
          "name": "",
          "type": "uint256"
        }
      ],
      "name": "usedTickets",
      "outputs": [
        {
          "internalType": "bool",
          "name": "",
          "type": "bool"
        }
      ],
      "stateMutability": "view",
      "type": "function"
    },
    {
      "inputs": [
        {
          "internalType": "uint256",
          "name": "tokenId",
          "type": "uint256"
        }
      ],
      "name": "validateTicket",
      "outputs": [],
      "stateMutability": "nonpayable",
      "type": "function"
    }
  ],
  "bytecode": "0x608060405234801561001057600080fd5b506040516133833803806133838339818101604052810190610032919061037a565b80838381600090816100449190610626565b5080600190816100549190610626565b505050600073ffffffffffffffffffffffffffffffffffffffff168173ffffffffffffffffffffffffffffffffffffffff16036100c95760006040517f1e4fbdf70000000000000000000000000000000000000000000000000000000081526004016100c09190610707565b60405180910390fd5b6100d8816100e160201b60201c565b50505050610722565b6000600760009054906101000a900473ffffffffffffffffffffffffffffffffffffffff16905081600760006101000a81548173ffffffffffffffffffffffffffffffffffffffff021916908373ffffffffffffffffffffffffffffffffffffffff1602179055508173ffffffffffffffffffffffffffffffffffffffff168173ffffffffffffffffffffffffffffffffffffffff167f8be0079c531659141344cd1fd0a4f28419497f9722a3daafe3b4186f6b6457e060405160405180910390a35050565b6000604051905090565b600080fd5b600080fd5b600080fd5b600080fd5b6000601f19601f8301169050919050565b7f4e487b7100000000000000000000000000000000000000000000000000000000600052604160045260246000fd5b61020e826101c5565b810181811067ffffffffffffffff8211171561022d5761022c6101d6565b5b80604052505050565b60006102406101a7565b905061024c8282610205565b919050565b600067ffffffffffffffff82111561026c5761026b6101d6565b5b610275826101c5565b9050602081019050919050565b60005b838110156102a0578082015181840152602081019050610285565b60008484015250505050565b60006102bf6102ba84610251565b610236565b9050828152602081018484840111156102db576102da6101c0565b5b6102e6848285610282565b509392505050565b600082601f830112610303576103026101bb565b5b81516103138482602086016102ac565b91505092915050565b600073ffffffffffffffffffffffffffffffffffffffff82169050919050565b60006103478261031c565b9050919050565b6103578161033c565b811461036257600080fd5b50565b6000815190506103748161034e565b92915050565b600080600060608486031215610393576103926101b1565b5b600084015167ffffffffffffffff8111156103b1576103b06101b6565b5b6103bd868287016102ee565b935050602084015167ffffffffffffffff8111156103de576103dd6101b6565b5b6103ea868287016102ee565b92505060406103fb86828701610365565b9150509250925092565b600081519050919050565b7f4e487b7100000000000000000000000000000000000000000000000000000000600052602260045260246000fd5b6000600282049050600182168061045757607f821691505b60208210810361046a57610469610410565b5b50919050565b60008190508160005260206000209050919050565b60006020601f8301049050919050565b600082821b905092915050565b6000600883026104d27fffffffffffffffffffffffffffffffffffffffffffffffffffffffffffffffff82610495565b6104dc8683610495565b95508019841693508086168417925050509392505050565b6000819050919050565b6000819050919050565b600061052361051e610519846104f4565b6104fe565b6104f4565b9050919050565b6000819050919050565b61053d83610508565b6105516105498261052a565b8484546104a2565b825550505050565b600090565b610566610559565b610571818484610534565b505050565b5b818110156105955761058a60008261055e565b600181019050610577565b5050565b601f8211156105da576105ab81610470565b6105b484610485565b810160208510156105c3578190505b6105d76105cf85610485565b830182610576565b50505b505050565b600082821c905092915050565b60006105fd600019846008026105df565b1980831691505092915050565b600061061683836105ec565b9150826002028217905092915050565b61062f82610405565b67ffffffffffffffff811115610648576106476101d6565b5b610652825461043f565b61065d828285610599565b600060209050601f831160018114610690576000841561067e578287015190505b610688858261060a565b8655506106f0565b601f19841661069e86610470565b60005b828110156106c6578489015182556001820191506020850194506020810190506106a1565b868310156106e357848901516106df601f8916826105ec565b8355505b6001600288020188555050505b505050505050565b6107018161033c565b82525050565b600060208201905061071c60008301846106f8565b92915050565b612c52806107316000396000f3fe608060405234801561001057600080fd5b50600436106101375760003560e01c8063715018a6116100b8578063aa11487a1161007c578063aa11487a14610338578063b88d4fde14610368578063c87b56dd14610384578063cf7a3141146103b4578063e985e9c5146103e4578063f2fde38b1461041457610137565b8063715018a6146102a657806371efdc21146102b05780638da5cb5b146102e057806395d89b41146102fe578063a22cb4651461031c57610137565b806323b872dd116100ff57806323b872dd146101f25780632b1014841461020e57806342842e0e1461022a5780636352211e1461024657806370a082311461027657610137565b806301ffc9a71461013c578063054ae7df1461016c57806306fdde0314610188578063081812fc146101a6578063095ea7b3146101d6575b600080fd5b61015660048036038101906101519190611e3b565b610430565b6040516101639190611e83565b60405180910390f35b61018660048036038101906101819190611ed4565b610491565b005b610190610541565b60405161019d9190611f91565b60405180910390f35b6101c060048036038101906101bb9190611ed4565b6105d3565b6040516101cd9190611ff4565b60405180910390f35b6101f060048036038101906101eb919061203b565b6105ef565b005b61020c6004803603810190610207919061207b565b610605565b005b610228600480360381019061022391906120ce565b610707565b005b610244600480360381019061023f919061207b565b610894565b005b610260600480360381019061025b9190611ed4565b6108b4565b60405161026d9190611ff4565b60405180910390f35b610290600480360381019061028b9190612121565b6108c6565b60405161029d919061215d565b60405180910390f35b6102ae610980565b005b6102ca60048036038101906102c59190611ed4565b610994565b6040516102d79190611e83565b60405180910390f35b6102e86109b4565b6040516102f59190611ff4565b60405180910390f35b6103066109de565b6040516103139190611f91565b60405180910390f35b610336600480360381019061033191906121a4565b610a70565b005b610352600480360381019061034d9190611ed4565b610a86565b60405161035f919061215d565b60405180910390f35b610382600480360381019061037d9190612319565b610a9e565b005b61039e60048036038101906103999190611ed4565b610ac3565b6040516103ab9190611f91565b60405180910390f35b6103ce60048036038101906103c9919061243d565b610bd6565b6040516103db919061215d565b60405180910390f35b6103fe60048036038101906103f991906124ac565b610c86565b60405161040b9190611e83565b60405180910390f35b61042e60048036038101906104299190612121565b610d1a565b005b6000634906490660e01b7bffffffffffffffffffffffffffffffffffffffffffffffffffffffff1916827bffffffffffffffffffffffffffffffffffffffffffffffffffffffff1916148061048a575061048982610da0565b5b9050919050565b3373ffffffffffffffffffffffffffffffffffffffff166104b1826108b4565b73ffffffffffffffffffffffffffffffffffffffff1614610507576040517f08c379a00000000000000000000000000000000000000000000000000000000081526004016104fe90612538565b60405180910390fd5b7f57bbca7d06236724b863845d5ac4a5b2431ab54922f89f8644ec9e837b7b5e0481604051610536919061215d565b60405180910390a150565b60606000805461055090612587565b80601f016020809104026020016040519081016040528092919081815260200182805461057c90612587565b80156105c95780601f1061059e576101008083540402835291602001916105c9565b820191906000526020600020905b8154815290600101906020018083116105ac57829003601f168201915b5050505050905090565b60006105de82610e82565b506105e882610f0a565b9050919050565b61060182826105fc610f47565b610f4f565b5050565b600073ffffffffffffffffffffffffffffffffffffffff168273ffffffffffffffffffffffffffffffffffffffff16036106775760006040517f64a0ae9200000000000000000000000000000000000000000000000000000000815260040161066e9190611ff4565b60405180910390fd5b600061068b8383610686610f47565b610f61565b90508373ffffffffffffffffffffffffffffffffffffffff168173ffffffffffffffffffffffffffffffffffffffff1614610701578382826040517f64283d7b0000000000000000000000000000000000000000000000000000000081526004016106f8939291906125b8565b60405180910390fd5b50505050565b3373ffffffffffffffffffffffffffffffffffffffff16610727846108b4565b73ffffffffffffffffffffffffffffffffffffffff161461077d576040517f08c379a00000000000000000000000000000000000000000000000000000000081526004016107749061263b565b60405180910390fd5b60096000848152602001908152602001600020548111156107d3576040517f08c379a00000000000000000000000000000000000000000000000000000000081526004016107ca906126a7565b60405180910390fd5b600a600084815260200190815260200160002060009054906101000a900460ff1615610834576040517f08c379a000000000000000000000000000000000000000000000000000000000815260040161082b90612713565b60405180910390fd5b61083f338385610894565b8173ffffffffffffffffffffffffffffffffffffffff167fc40e38d52641f445f65e6b37a0df098ef6a34a66ff5d6c176b0f1209f6a0792c8483604051610887929190612733565b60405180910390a2505050565b6108af83838360405180602001604052806000815250610a9e565b505050565b60006108bf82610e82565b9050919050565b60008073ffffffffffffffffffffffffffffffffffffffff168273ffffffffffffffffffffffffffffffffffffffff16036109395760006040517f89c62b640000000000000000000000000000000000000000000000000000000081526004016109309190611ff4565b60405180910390fd5b600360008373ffffffffffffffffffffffffffffffffffffffff1673ffffffffffffffffffffffffffffffffffffffff168152602001908152602001600020549050919050565b61098861117b565b6109926000611202565b565b600a6020528060005260406000206000915054906101000a900460ff1681565b6000600760009054906101000a900473ffffffffffffffffffffffffffffffffffffffff16905090565b6060600180546109ed90612587565b80601f0160208091040260200160405190810160405280929190818152602001828054610a1990612587565b8015610a665780601f10610a3b57610100808354040283529160200191610a66565b820191906000526020600020905b815481529060010190602001808311610a4957829003601f168201915b5050505050905090565b610a82610a7b610f47565b83836112c8565b5050565b60096020528060005260406000206000915090505481565b610aa9848484610605565b610abd610ab4610f47565b85858585611437565b50505050565b6060610ace82610e82565b506000600660008481526020019081526020016000208054610aef90612587565b80601f0160208091040260200160405190810160405280929190818152602001828054610b1b90612587565b8015610b685780601f10610b3d57610100808354040283529160200191610b68565b820191906000526020600020905b815481529060010190602001808311610b4b57829003601f168201915b505050505090506000610b796115e8565b90506000815103610b8e578192505050610bd1565b600082511115610bc3578082604051602001610bab929190612798565b60405160208183030381529060405292505050610bd1565b610bcc846115ff565b925050505b919050565b6000610be061117b565b6000600854905060086000815480929190610bfa906127eb565b9190505550610c098582611668565b610c138185611761565b8260096000838152602001908152602001600020819055508473ffffffffffffffffffffffffffffffffffffffff167ff16f1e8b680ea7f1e8a1f849eb82762cba60ddcef854d36909e3173483281c8c8286604051610c73929190612833565b60405180910390a2809150509392505050565b6000600560008473ffffffffffffffffffffffffffffffffffffffff1673ffffffffffffffffffffffffffffffffffffffff16815260200190815260200160002060008373ffffffffffffffffffffffffffffffffffffffff1673ffffffffffffffffffffffffffffffffffffffff16815260200190815260200160002060009054906101000a900460ff16905092915050565b610d2261117b565b600073ffffffffffffffffffffffffffffffffffffffff168173ffffffffffffffffffffffffffffffffffffffff1603610d945760006040517f1e4fbdf7000000000000000000000000000000000000000000000000000000008152600401610d8b9190611ff4565b60405180910390fd5b610d9d81611202565b50565b60007f80ac58cd000000000000000000000000000000000000000000000000000000007bffffffffffffffffffffffffffffffffffffffffffffffffffffffff1916827bffffffffffffffffffffffffffffffffffffffffffffffffffffffff19161480610e6b57507f5b5e139f000000000000000000000000000000000000000000000000000000007bffffffffffffffffffffffffffffffffffffffffffffffffffffffff1916827bffffffffffffffffffffffffffffffffffffffffffffffffffffffff1916145b80610e7b5750610e7a826117bd565b5b9050919050565b600080610e8e83611827565b9050600073ffffffffffffffffffffffffffffffffffffffff168173ffffffffffffffffffffffffffffffffffffffff1603610f0157826040517f7e273289000000000000000000000000000000000000000000000000000000008152600401610ef8919061215d565b60405180910390fd5b80915050919050565b60006004600083815260200190815260200160002060009054906101000a900473ffffffffffffffffffffffffffffffffffffffff169050919050565b600033905090565b610f5c8383836001611864565b505050565b600080610f6d84611827565b9050600073ffffffffffffffffffffffffffffffffffffffff168373ffffffffffffffffffffffffffffffffffffffff1614610faf57610fae818486611a29565b5b600073ffffffffffffffffffffffffffffffffffffffff168173ffffffffffffffffffffffffffffffffffffffff161461104057610ff1600085600080611864565b6001600360008373ffffffffffffffffffffffffffffffffffffffff1673ffffffffffffffffffffffffffffffffffffffff168152602001908152602001600020600082825403925050819055505b600073ffffffffffffffffffffffffffffffffffffffff168573ffffffffffffffffffffffffffffffffffffffff16146110c3576001600360008773ffffffffffffffffffffffffffffffffffffffff1673ffffffffffffffffffffffffffffffffffffffff168152602001908152602001600020600082825401925050819055505b846002600086815260200190815260200160002060006101000a81548173ffffffffffffffffffffffffffffffffffffffff021916908373ffffffffffffffffffffffffffffffffffffffff160217905550838573ffffffffffffffffffffffffffffffffffffffff168273ffffffffffffffffffffffffffffffffffffffff167fddf252ad1be2c89b69c2b068fc378daa952ba7f163c4a11628f55a4df523b3ef60405160405180910390a4809150509392505050565b611183610f47565b73ffffffffffffffffffffffffffffffffffffffff166111a16109b4565b73ffffffffffffffffffffffffffffffffffffffff1614611200576111c4610f47565b6040517f118cdaa70000000000000000000000000000000000000000000000000000000081526004016111f79190611ff4565b60405180910390fd5b565b6000600760009054906101000a900473ffffffffffffffffffffffffffffffffffffffff16905081600760006101000a81548173ffffffffffffffffffffffffffffffffffffffff021916908373ffffffffffffffffffffffffffffffffffffffff1602179055508173ffffffffffffffffffffffffffffffffffffffff168173ffffffffffffffffffffffffffffffffffffffff167f8be0079c531659141344cd1fd0a4f28419497f9722a3daafe3b4186f6b6457e060405160405180910390a35050565b600073ffffffffffffffffffffffffffffffffffffffff168273ffffffffffffffffffffffffffffffffffffffff160361133957816040517f5b08ba180000000000000000000000000000000000000000000000000000000081526004016113309190611ff4565b60405180910390fd5b80600560008573ffffffffffffffffffffffffffffffffffffffff1673ffffffffffffffffffffffffffffffffffffffff16815260200190815260200160002060008473ffffffffffffffffffffffffffffffffffffffff1673ffffffffffffffffffffffffffffffffffffffff16815260200190815260200160002060006101000a81548160ff0219169083151502179055508173ffffffffffffffffffffffffffffffffffffffff168373ffffffffffffffffffffffffffffffffffffffff167f17307eab39ab6107e8899845ad3d59bd9653f200f220920489ca2b5937696c318360405161142a9190611e83565b60405180910390a3505050565b60008373ffffffffffffffffffffffffffffffffffffffff163b11156115e1578273ffffffffffffffffffffffffffffffffffffffff1663150b7a02868685856040518563ffffffff1660e01b815260040161149694939291906128b8565b6020604051808303816000875af19250505080156114d257506040513d601f19601f820116820180604052508101906114cf9190612919565b60015b611556573d8060008114611502576040519150601f19603f3d011682016040523d82523d6000602084013e611507565b606091505b50600081510361154e57836040517f64a0ae920000000000000000000000000000000000000000000000000000000081526004016115459190611ff4565b60405180910390fd5b805181602001fd5b63150b7a0260e01b7bffffffffffffffffffffffffffffffffffffffffffffffffffffffff1916817bffffffffffffffffffffffffffffffffffffffffffffffffffffffff1916146115df57836040517f64a0ae920000000000000000000000000000000000000000000000000000000081526004016115d69190611ff4565b60405180910390fd5b505b5050505050565b606060405180602001604052806000815250905090565b606061160a82610e82565b5060006116156115e8565b905060008151116116355760405180602001604052806000815250611660565b8061163f84611aed565b604051602001611650929190612798565b6040516020818303038152906040525b915050919050565b600073ffffffffffffffffffffffffffffffffffffffff168273ffffffffffffffffffffffffffffffffffffffff16036116da5760006040517f64a0ae920000000000000000000000000000000000000000000000000000000081526004016116d19190611ff4565b60405180910390fd5b60006116e883836000610f61565b9050600073ffffffffffffffffffffffffffffffffffffffff168173ffffffffffffffffffffffffffffffffffffffff161461175c5760006040517f73c6ac6e0000000000000000000000000000000000000000000000000000000081526004016117539190611ff4565b60405180910390fd5b505050565b806006600084815260200190815260200160002090816117819190612af2565b507ff8e1a15aba9398e019f0b49df1a4fde98ee17ae345cb5f6b5e2c27f5033e8ce7826040516117b1919061215d565b60405180910390a15050565b60007f01ffc9a7000000000000000000000000000000000000000000000000000000007bffffffffffffffffffffffffffffffffffffffffffffffffffffffff1916827bffffffffffffffffffffffffffffffffffffffffffffffffffffffff1916149050919050565b60006002600083815260200190815260200160002060009054906101000a900473ffffffffffffffffffffffffffffffffffffffff169050919050565b808061189d5750600073ffffffffffffffffffffffffffffffffffffffff168273ffffffffffffffffffffffffffffffffffffffff1614155b156119d15760006118ad84610e82565b9050600073ffffffffffffffffffffffffffffffffffffffff168373ffffffffffffffffffffffffffffffffffffffff161415801561191857508273ffffffffffffffffffffffffffffffffffffffff168173ffffffffffffffffffffffffffffffffffffffff1614155b801561192b57506119298184610c86565b155b1561196d57826040517fa9fbf51f0000000000000000000000000000000000000000000000000000000081526004016119649190611ff4565b60405180910390fd5b81156119cf57838573ffffffffffffffffffffffffffffffffffffffff168273ffffffffffffffffffffffffffffffffffffffff167f8c5be1e5ebec7d5bd14f71427d1e84f3dd0314c0f7b2291e5b200ac8c7c3b92560405160405180910390a45b505b836004600085815260200190815260200160002060006101000a81548173ffffffffffffffffffffffffffffffffffffffff021916908373ffffffffffffffffffffffffffffffffffffffff16021790555050505050565b611a34838383611bbb565b611ae857600073ffffffffffffffffffffffffffffffffffffffff168373ffffffffffffffffffffffffffffffffffffffff1603611aa957806040517f7e273289000000000000000000000000000000000000000000000000000000008152600401611aa0919061215d565b60405180910390fd5b81816040517f177e802f000000000000000000000000000000000000000000000000000000008152600401611adf929190612bc4565b60405180910390fd5b505050565b606060006001611afc84611c7c565b01905060008167ffffffffffffffff811115611b1b57611b1a6121ee565b5b6040519080825280601f01601f191660200182016040528015611b4d5781602001600182028036833780820191505090505b509050600082602001820190505b600115611bb0578080600190039150507f3031323334353637383961626364656600000000000000000000000000000000600a86061a8153600a8581611ba457611ba3612bed565b5b04945060008503611b5b575b819350505050919050565b60008073ffffffffffffffffffffffffffffffffffffffff168373ffffffffffffffffffffffffffffffffffffffff1614158015611c7357508273ffffffffffffffffffffffffffffffffffffffff168473ffffffffffffffffffffffffffffffffffffffff161480611c345750611c338484610c86565b5b80611c7257508273ffffffffffffffffffffffffffffffffffffffff16611c5a83610f0a565b73ffffffffffffffffffffffffffffffffffffffff16145b5b90509392505050565b600080600090507a184f03e93ff9f4daa797ed6e38ed64bf6a1f0100000000000000008310611cda577a184f03e93ff9f4daa797ed6e38ed64bf6a1f0100000000000000008381611cd057611ccf612bed565b5b0492506040810190505b6d04ee2d6d415b85acef81000000008310611d17576d04ee2d6d415b85acef81000000008381611d0d57611d0c612bed565b5b0492506020810190505b662386f26fc100008310611d4657662386f26fc100008381611d3c57611d3b612bed565b5b0492506010810190505b6305f5e1008310611d6f576305f5e1008381611d6557611d64612bed565b5b0492506008810190505b6127108310611d94576127108381611d8a57611d89612bed565b5b0492506004810190505b60648310611db75760648381611dad57611dac612bed565b5b0492506002810190505b600a8310611dc6576001810190505b80915050919050565b6000604051905090565b600080fd5b600080fd5b60007fffffffff0000000000000000000000000000000000000000000000000000000082169050919050565b611e1881611de3565b8114611e2357600080fd5b50565b600081359050611e3581611e0f565b92915050565b600060208284031215611e5157611e50611dd9565b5b6000611e5f84828501611e26565b91505092915050565b60008115159050919050565b611e7d81611e68565b82525050565b6000602082019050611e986000830184611e74565b92915050565b6000819050919050565b611eb181611e9e565b8114611ebc57600080fd5b50565b600081359050611ece81611ea8565b92915050565b600060208284031215611eea57611ee9611dd9565b5b6000611ef884828501611ebf565b91505092915050565b600081519050919050565b600082825260208201905092915050565b60005b83811015611f3b578082015181840152602081019050611f20565b60008484015250505050565b6000601f19601f8301169050919050565b6000611f6382611f01565b611f6d8185611f0c565b9350611f7d818560208601611f1d565b611f8681611f47565b840191505092915050565b60006020820190508181036000830152611fab8184611f58565b905092915050565b600073ffffffffffffffffffffffffffffffffffffffff82169050919050565b6000611fde82611fb3565b9050919050565b611fee81611fd3565b82525050565b60006020820190506120096000830184611fe5565b92915050565b61201881611fd3565b811461202357600080fd5b50565b6000813590506120358161200f565b92915050565b6000806040838503121561205257612051611dd9565b5b600061206085828601612026565b925050602061207185828601611ebf565b9150509250929050565b60008060006060848603121561209457612093611dd9565b5b60006120a286828701612026565b93505060206120b386828701612026565b92505060406120c486828701611ebf565b9150509250925092565b6000806000606084860312156120e7576120e6611dd9565b5b60006120f586828701611ebf565b935050602061210686828701612026565b925050604061211786828701611ebf565b9150509250925092565b60006020828403121561213757612136611dd9565b5b600061214584828501612026565b91505092915050565b61215781611e9e565b82525050565b6000602082019050612172600083018461214e565b92915050565b61218181611e68565b811461218c57600080fd5b50565b60008135905061219e81612178565b92915050565b600080604083850312156121bb576121ba611dd9565b5b60006121c985828601612026565b92505060206121da8582860161218f565b9150509250929050565b600080fd5b600080fd5b7f4e487b7100000000000000000000000000000000000000000000000000000000600052604160045260246000fd5b61222682611f47565b810181811067ffffffffffffffff82111715612245576122446121ee565b5b80604052505050565b6000612258611dcf565b9050612264828261221d565b919050565b600067ffffffffffffffff821115612284576122836121ee565b5b61228d82611f47565b9050602081019050919050565b82818337600083830152505050565b60006122bc6122b784612269565b61224e565b9050828152602081018484840111156122d8576122d76121e9565b5b6122e384828561229a565b509392505050565b600082601f830112612300576122ff6121e4565b5b81356123108482602086016122a9565b91505092915050565b6000806000806080858703121561233357612332611dd9565b5b600061234187828801612026565b945050602061235287828801612026565b935050604061236387828801611ebf565b925050606085013567ffffffffffffffff81111561238457612383611dde565b5b612390878288016122eb565b91505092959194509250565b600067ffffffffffffffff8211156123b7576123b66121ee565b5b6123c082611f47565b9050602081019050919050565b60006123e06123db8461239c565b61224e565b9050828152602081018484840111156123fc576123fb6121e9565b5b61240784828561229a565b509392505050565b600082601f830112612424576124236121e4565b5b81356124348482602086016123cd565b91505092915050565b60008060006060848603121561245657612455611dd9565b5b600061246486828701612026565b935050602084013567ffffffffffffffff81111561248557612484611dde565b5b6124918682870161240f565b92505060406124a286828701611ebf565b9150509250925092565b600080604083850312156124c3576124c2611dd9565b5b60006124d185828601612026565b92505060206124e285828601612026565b9150509250929050565b7f596f7520646f206e6f74206f776e2074686973207469636b6574000000000000600082015250565b6000612522601a83611f0c565b915061252d826124ec565b602082019050919050565b6000602082019050818103600083015261255181612515565b9050919050565b7f4e487b7100000000000000000000000000000000000000000000000000000000600052602260045260246000fd5b6000600282049050600182168061259f57607f821691505b6020821081036125b2576125b1612558565b5b50919050565b60006060820190506125cd6000830186611fe5565b6125da602083018561214e565b6125e76040830184611fe5565b949350505050565b7f4e6f7420746865207469636b6574206f776e6572000000000000000000000000600082015250565b6000612625601483611f0c565b9150612630826125ef565b602082019050919050565b6000602082019050818103600083015261265481612618565b9050919050565b7f45786365656473206d617820726573616c652070726963650000000000000000600082015250565b6000612691601883611f0c565b915061269c8261265b565b602082019050919050565b600060208201905081810360008301526126c081612684565b9050919050565b7f55736564207469636b6574732063616e6e6f74206265207265736f6c64000000600082015250565b60006126fd601d83611f0c565b9150612708826126c7565b602082019050919050565b6000602082019050818103600083015261272c816126f0565b9050919050565b6000604082019050612748600083018561214e565b612755602083018461214e565b9392505050565b600081905092915050565b600061277282611f01565b61277c818561275c565b935061278c818560208601611f1d565b80840191505092915050565b60006127a48285612767565b91506127b08284612767565b91508190509392505050565b7f4e487b7100000000000000000000000000000000000000000000000000000000600052601160045260246000fd5b60006127f682611e9e565b91507fffffffffffffffffffffffffffffffffffffffffffffffffffffffffffffffff8203612828576128276127bc565b5b600182019050919050565b6000604082019050612848600083018561214e565b818103602083015261285a8184611f58565b90509392505050565b600081519050919050565b600082825260208201905092915050565b600061288a82612863565b612894818561286e565b93506128a4818560208601611f1d565b6128ad81611f47565b840191505092915050565b60006080820190506128cd6000830187611fe5565b6128da6020830186611fe5565b6128e7604083018561214e565b81810360608301526128f9818461287f565b905095945050505050565b60008151905061291381611e0f565b92915050565b60006020828403121561292f5761292e611dd9565b5b600061293d84828501612904565b91505092915050565b60008190508160005260206000209050919050565b60006020601f8301049050919050565b600082821b905092915050565b6000600883026129a87fffffffffffffffffffffffffffffffffffffffffffffffffffffffffffffffff8261296b565b6129b2868361296b565b95508019841693508086168417925050509392505050565b6000819050919050565b60006129ef6129ea6129e584611e9e565b6129ca565b611e9e565b9050919050565b6000819050919050565b612a09836129d4565b612a1d612a15826129f6565b848454612978565b825550505050565b600090565b612a32612a25565b612a3d818484612a00565b505050565b5b81811015612a6157612a56600082612a2a565b600181019050612a43565b5050565b601f821115612aa657612a7781612946565b612a808461295b565b81016020851015612a8f578190505b612aa3612a9b8561295b565b830182612a42565b50505b505050565b600082821c905092915050565b6000612ac960001984600802612aab565b1980831691505092915050565b6000612ae28383612ab8565b9150826002028217905092915050565b612afb82611f01565b67ffffffffffffffff811115612b1457612b136121ee565b5b612b1e8254612587565b612b29828285612a65565b600060209050601f831160018114612b5c5760008415612b4a578287015190505b612b548582612ad6565b865550612bbc565b601f198416612b6a86612946565b60005b82811015612b9257848901518255600182019150602085019450602081019050612b6d565b86831015612baf5784890151612bab601f891682612ab8565b8355505b6001600288020188555050505b505050505050565b6000604082019050612bd96000830185611fe5565b612be6602083018461214e565b9392505050565b7f4e487b7100000000000000000000000000000000000000000000000000000000600052601260045260246000fdfea26469706673582212209768af88cbf8a16b1e1e6bc6b5012b406cc08ec74f54bf5fed4025317d8b3e0764736f6c634300081c0033",
  "linkReferences": {},
  "deployedLinkReferences": {}
}